{
  "_format": "hh-sol-artifact-1",
  "contractName": "Campaign",
  "sourceName": "contracts/Campaign.sol",
  "abi": [
    {
      "inputs": [
        {
          "internalType": "string",
          "name": "campaignTitle",
          "type": "string"
        },
        {
          "internalType": "uint256",
          "name": "requiredCampaignAmount",
          "type": "uint256"
        },
        {
          "internalType": "string",
          "name": "campaignImage",
          "type": "string"
        },
        {
          "internalType": "string",
          "name": "campaignStory",
          "type": "string"
        }
      ],
      "stateMutability": "nonpayable",
      "type": "constructor"
    },
    {
      "anonymous": false,
      "inputs": [
        {
          "indexed": true,
          "internalType": "address",
          "name": "donar",
          "type": "address"
        },
        {
          "indexed": true,
          "internalType": "uint256",
          "name": "amount",
          "type": "uint256"
        },
        {
          "indexed": true,
          "internalType": "uint256",
          "name": "timestamp",
          "type": "uint256"
        }
      ],
      "name": "donated",
      "type": "event"
    },
    {
      "inputs": [],
      "name": "donate",
      "outputs": [],
      "stateMutability": "payable",
      "type": "function"
    },
    {
      "inputs": [],
      "name": "image",
      "outputs": [
        {
          "internalType": "string",
          "name": "",
          "type": "string"
        }
      ],
      "stateMutability": "view",
      "type": "function"
    },
    {
      "inputs": [],
      "name": "owner",
      "outputs": [
        {
          "internalType": "address payable",
          "name": "",
          "type": "address"
        }
      ],
      "stateMutability": "view",
      "type": "function"
    },
    {
      "inputs": [],
      "name": "receivedAmount",
      "outputs": [
        {
          "internalType": "uint256",
          "name": "",
          "type": "uint256"
        }
      ],
      "stateMutability": "view",
      "type": "function"
    },
    {
      "inputs": [],
      "name": "requiredAmount",
      "outputs": [
        {
          "internalType": "uint256",
          "name": "",
          "type": "uint256"
        }
      ],
      "stateMutability": "view",
      "type": "function"
    },
    {
      "inputs": [],
      "name": "story",
      "outputs": [
        {
          "internalType": "string",
          "name": "",
          "type": "string"
        }
      ],
      "stateMutability": "view",
      "type": "function"
    },
    {
      "inputs": [],
      "name": "title",
      "outputs": [
        {
          "internalType": "string",
          "name": "",
          "type": "string"
        }
      ],
      "stateMutability": "view",
      "type": "function"
    }
  ],
  "bytecode": "0x60806040523480156200001157600080fd5b5060405162000ba738038062000ba783398181016040528101906200003791906200020d565b83600090805190602001906200004f929190620000d4565b508260018190555081600290805190602001906200006f929190620000d4565b50806003908051906020019062000088929190620000d4565b5033600460006101000a81548173ffffffffffffffffffffffffffffffffffffffff021916908373ffffffffffffffffffffffffffffffffffffffff1602179055505050505062000458565b828054620000e29062000363565b90600052602060002090601f01602090048101928262000106576000855562000152565b82601f106200012157805160ff191683800117855562000152565b8280016001018555821562000152579182015b828111156200015157825182559160200191906001019062000134565b5b50905062000161919062000165565b5090565b5b808211156200018057600081600090555060010162000166565b5090565b60006200019b6200019584620002ed565b620002c4565b905082815260208101848484011115620001b457600080fd5b620001c18482856200032d565b509392505050565b600082601f830112620001db57600080fd5b8151620001ed84826020860162000184565b91505092915050565b60008151905062000207816200043e565b92915050565b600080600080608085870312156200022457600080fd5b600085015167ffffffffffffffff8111156200023f57600080fd5b6200024d87828801620001c9565b94505060206200026087828801620001f6565b935050604085015167ffffffffffffffff8111156200027e57600080fd5b6200028c87828801620001c9565b925050606085015167ffffffffffffffff811115620002aa57600080fd5b620002b887828801620001c9565b91505092959194509250565b6000620002d0620002e3565b9050620002de828262000399565b919050565b6000604051905090565b600067ffffffffffffffff8211156200030b576200030a620003fe565b5b62000316826200042d565b9050602081019050919050565b6000819050919050565b60005b838110156200034d57808201518184015260208101905062000330565b838111156200035d576000848401525b50505050565b600060028204905060018216806200037c57607f821691505b60208210811415620003935762000392620003cf565b5b50919050565b620003a4826200042d565b810181811067ffffffffffffffff82111715620003c657620003c5620003fe565b5b80604052505050565b7f4e487b7100000000000000000000000000000000000000000000000000000000600052602260045260246000fd5b7f4e487b7100000000000000000000000000000000000000000000000000000000600052604160045260246000fd5b6000601f19601f8301169050919050565b620004498162000323565b81146200045557600080fd5b50565b61073f80620004686000396000f3fe6080604052600436106100705760003560e01c80638da5cb5b1161004e5780638da5cb5b146100f65780639632e72014610121578063ed88c68e1461014c578063f3ccaac01461015657610070565b806346c922d11461007557806348b9ef40146100a05780634a79d50c146100cb575b600080fd5b34801561008157600080fd5b5061008a610181565b6040516100979190610501565b60405180910390f35b3480156100ac57600080fd5b506100b561020f565b6040516100c29190610543565b60405180910390f35b3480156100d757600080fd5b506100e0610215565b6040516100ed9190610501565b60405180910390f35b34801561010257600080fd5b5061010b6102a3565b60405161011891906104e6565b60405180910390f35b34801561012d57600080fd5b506101366102c9565b6040516101439190610543565b60405180910390f35b6101546102cf565b005b34801561016257600080fd5b5061016b6103de565b6040516101789190610501565b60405180910390f35b6003805461018e9061063f565b80601f01602080910402602001604051908101604052809291908181526020018280546101ba9061063f565b80156102075780601f106101dc57610100808354040283529160200191610207565b820191906000526020600020905b8154815290600101906020018083116101ea57829003601f168201915b505050505081565b60015481565b600080546102229061063f565b80601f016020809104026020016040519081016040528092919081815260200182805461024e9061063f565b801561029b5780601f106102705761010080835404028352916020019161029b565b820191906000526020600020905b81548152906001019060200180831161027e57829003601f168201915b505050505081565b600460009054906101000a900473ffffffffffffffffffffffffffffffffffffffff1681565b60055481565b60055460015411610315576040517f08c379a000000000000000000000000000000000000000000000000000000000815260040161030c90610523565b60405180910390fd5b600460009054906101000a900473ffffffffffffffffffffffffffffffffffffffff1673ffffffffffffffffffffffffffffffffffffffff166108fc349081150290604051600060405180830381858888f1935050505015801561037d573d6000803e3d6000fd5b503460056000828254610390919061057a565b9250508190555042343373ffffffffffffffffffffffffffffffffffffffff167fe6add99d06d9ad7fc456e746aa162eed6211c5002ef2dacdd67b8d2016822fba60405160405180910390a4565b600280546103eb9061063f565b80601f01602080910402602001604051908101604052809291908181526020018280546104179061063f565b80156104645780601f1061043957610100808354040283529160200191610464565b820191906000526020600020905b81548152906001019060200180831161044757829003601f168201915b505050505081565b610475816105d0565b82525050565b60006104868261055e565b6104908185610569565b93506104a081856020860161060c565b6104a9816106cf565b840191505092915050565b60006104c1601983610569565b91506104cc826106e0565b602082019050919050565b6104e081610602565b82525050565b60006020820190506104fb600083018461046c565b92915050565b6000602082019050818103600083015261051b818461047b565b905092915050565b6000602082019050818103600083015261053c816104b4565b9050919050565b600060208201905061055860008301846104d7565b92915050565b600081519050919050565b600082825260208201905092915050565b600061058582610602565b915061059083610602565b9250827fffffffffffffffffffffffffffffffffffffffffffffffffffffffffffffffff038211156105c5576105c4610671565b5b828201905092915050565b60006105db826105e2565b9050919050565b600073ffffffffffffffffffffffffffffffffffffffff82169050919050565b6000819050919050565b60005b8381101561062a57808201518184015260208101905061060f565b83811115610639576000848401525b50505050565b6000600282049050600182168061065757607f821691505b6020821081141561066b5761066a6106a0565b5b50919050565b7f4e487b7100000000000000000000000000000000000000000000000000000000600052601160045260246000fd5b7f4e487b7100000000000000000000000000000000000000000000000000000000600052602260045260246000fd5b6000601f19601f8301169050919050565b7f726571756972656420616d6f756e742066756c66696c6c65640000000000000060008201525056fea26469706673582212204e77c7bdf75edc32395c48d2311d09dcf4ef39bb974def05f1df3662133718be64736f6c63430008040033",
  "linkReferences": {},
  "deployedLinkReferences": {}
}